:100000000C942A000C9400000C9400000C94000046
:100010000C9400000C9400000C9400000C94000060
:100020000C9400000C9400000C9400000C94000050
:100030000C9400000C9400000C9400000C94000040
:100040000C9400000C9400000C9400000C94000030
:100050000C940000F894EE27ECBBF1E0FBBFEBBF83
:10006000E5BF8DE0A2E0BB27ED938A95E9F780E03C
:1000700098E0A0E6ED930197E9F7EFE5EDBFE8E042
:10008000EEBFC0E6D2E00C94450015E0E0E0E4BB32
:10009000EFEFEABBE1BB2197E0E0EBBBDD98DC983A
:1000A000DF98DD9ADC9ADE9AE883A881AF3058F4B5
:1000B00071D009F0939A9C9B939ADC98DC9AE88122
:1000C000EF5FE883F2CF66D009F0939AEFE0E88320
:1000D000A881A13058F05ED009F0939A9D9B939A25
:1000E000DD98DD9AE881E150E883F2CF53D009F042
:1000F000939AE0E0E883A881A230C0F5E12FE6956D
:10010000E695E695E17011F4DB9801C0DB9AE12FEA
:10011000E695E695E17011F4DA9801C0DA9AE12FDC
:10012000E695E17011F4D99801C0D99A10FD02C08A
:10013000D89801C0D89ADE98DE9AE0E09B99E1E079
:10014000EA93E0E09A99E1E0EA93E0E09999E1E04E
:10015000EA93A0E09899A1E00ED01E1709F0939AB7
:10016000EFE01E27E881EF5FE883C5CF939B929A6B
:10017000219691CFFFCF22D01A2F0C813D812E8165
:10018000E22FEE0FE32BEE0FE02BEE0FE12B1BD057
:1001900027960895E0E09B99E1E0EA93E0E09A99E0
:1001A000E1E0EA93E0E09999E1E0EA93A0E0989930
:1001B000A1E0E1DFAE2FE881EA1708953A932A9390
:1001C0001A930A9308953B812A8119810881089521
:00000001FF
