:060000000C942F000C948B
:1000060000000C9400000C9400000C9400000C946A
:1000160000000C9400000C9400000C9400000C945A
:1000260000000C9400000C9400000C9400000C944A
:1000360000000C9400000C9400000C9400000C943A
:1000460000000C9400000C9400000C9400000000CA
:100056000200040054000000F894EE27ECBBF1E027
:10006600FBBFEBBFE5BF8DE0A2E0BB27ED938A9512
:10007600E9F780E098E0A0E6ED930197E9F7E6E579
:10008600F0E085919591009761F0A591B591059065
:100096001590BF01F00105900D920197E1F7FB0164
:1000A600F0CFEFE5EDBFE8E0EEBFC0E6D2E00C949E
:1000B6005C00E0E0EABBEFEFE4BBE1BB442455247F
:1000C600E8E2F0E04E165F060CF062C02297D2011D
:1000D600EAE0F0E0CCD0A6D0BF01D201EAE0F0E041
:1000E600CBD0E60FF71FE883F98363D0A4D0E17085
:1000F60011F4AC9801C0AC9A5CD09FD0E17011F4B9
:10010600AB9801C0AB9A55D09AD0E17011F4AA9879
:1001160001C0AA9A4ED0F595E795E17011F4A99819
:1001260001C0A99A46D0E17011F4A89801C0A89A16
:10013600EFEFEABBD89AD99ADA9ADB9ADC9ADD9A7B
:10014600DE9ADF9A3BD0E0E0D899E1E0EA93ED81D0
:10015600E170AE2F21D0D201F0E0EA17FB0709F4D7
:10016600939AD898D998DA98DB98DC98DD98DE9837
:10017600DF9824D0A0E0D899A1E016D0E03009F0AD
:10018600939AE0E0EABB2296F20132962F0198CFCD
:10019600939B929A93CFFFCF22D04A85E42FEE0FFE
:1001A600E52B24D02B9608951AD0E52F1FD02A963A
:1001B6000895E881F981F595E7950895E0E0DC99E1
:1001C600E1E0EA93E0E0DB99E1E0EA93E0E0DA9946
:1001D600E1E0EA93E0E0D999E1E0EA93089510D0EE
:1001E6001A2F0E813F81288559850895EE0FE22B3F
:1001F600EE0FE32BEE0FE02BEE0FE12B08D0089568
:100206005A934A933A932A931A930A9308955D81CF
:100216004C813B812A81198108810895F195E195E8
:10022600F0400895EE0FFF1FEE0FFF1FEE0FFF1FAA
:10023600EE0FFF1F0895F595E795F595E795F5956A
:10024600E795F595E79508950024112490E1AA0F06
:10025600BB1F001C111C0E1A1F0A18F40E0E1F1EBF
:1002660001C0A1609A9599F7FD01D001089512D0B9
:10027600EBDF0EF4D3DF0895E894B7FF04C0B19521
:10028600A195B0406894F7FDC9DFDEDFFD010EF4ED
:10029600C5DF0895E894F7FF02C0C0DF6894B7FF92
:1002A60006C0B195A195B04000F8039400FA0895F0
:00000001FF
