:060000000C942F000C948B
:1000060000000C9400000C9400000C9400000C946A
:1000160000000C9400000C9400000C9400000C945A
:1000260000000C9400000C9400000C9400000C944A
:1000360000000C9400000C9400000C9400000C943A
:1000460000000C9400000C9400000C9400000000CA
:100056000100070054000000F894EE27ECBBF1E025
:10006600F5BFE5BF8DE0A2E0BB27ED938A95E9F7E2
:1000760080E098E0A0E6ED930197E9F7E6E5F0E089
:1000860085919591009761F0A591B5910590159090
:10009600BF01F00105900D920197E1F7FB01F0CF4A
:1000A600EFE5EDBFE8E0EEBFC0E6D2E00C945B0002
:1000B600E0E0E4BBEFEFEABBE1BBE0E0EBBBDD98E1
:1000C600DF98DE9ADC98DB98DA98D998D898DE988B
:1000D600DE9A5524EEE0E51560F086D011F0E1E0F9
:1000E6007E2E9C9B02C0E1E07E2EDF9ADF98539421
:1000F600F1CF7AD011F0E1E07E2E9C9902C0E1E0CA
:100106007E2EDC9ADB9ADA9AD99AD898DE98DE9A0D
:10011600EEE05E2EE1E05E1660F066D011F0E1E002
:100126007E2E9C9B02C0E1E07E2EDF9ADF985A94D9
:10013600F1CF5AD011F0E1E07E2E9C9902C0E1E0A9
:100146007E2EE5E04E2E5524E1E0E515B8F1E42DCE
:10015600E695E695E695E17011F4DB9801C0DB9A29
:10016600E42DE695E695E17011F4DA9801C0DA9A85
:10017600E42DE695E17011F4D99801C0D99A40FCB6
:1001860002C0D89801C0D89ADE98DE9AE0E09B9922
:10019600E1E0EA93E0E09A99E1E0EA93E0E09999F8
:1001A600E1E0EA93A0E09899A1E00FD04E1611F095
:1001B600E1E07E2EEFE04E265394C6CF772011F471
:1001C600969A01C0979A79CFFFCF20D01A2F0C812B
:1001D6003D812E81E22FEE0FE32BEE0FE02BEE0F8B
:1001E600E12B19D027960895E0E09B99E1E0EA9388
:1001F600E0E09A99E1E0EA93E0E09999E1E0EA9398
:10020600A0E09899A1E0E1DF5E1608953A932A935B
:100216001A930A9308953B812A81198108810895CA
:00000001FF
