:0A0000000C942A000C9400000C94EC
:10000A0000000C9400000C9400000C9400000C9466
:10001A0000000C9400000C9400000C9400000C9456
:10002A0000000C9400000C9400000C9400000C9446
:10003A0000000C9400000C9400000C9400000C9436
:10004A0000000C9400000C940000F894EE27ECBB1E
:10005A00F1E0FBBFEBBFE5BF8DE0A2E0BB27ED936C
:10006A008A95E9F780E098E0A0E6ED930197E9F731
:10007A00EFE5EDBFE8E0EEBFC0E6D2E00C94450044
:10008A0015E0EFEFEABBE0E0E4BBEFEFE7BBE1BB73
:10009A0000E0023008F074C030E03031D8F593D077
:1000AA0011F4DF9801C0DF9A94D011F4C09801C00E
:1000BA00C09AE32FE695E17011F4C19801C0C19A84
:1000CA0030FD02C0D89801C0D89AE12FE695E6958E
:1000DA00E695E17011F4DE9801C0DE9AE12FE6950B
:1000EA00E695E17011F4DD9801C0DD9AE12FE695FD
:1000FA00E17011F4DC9801C0DC9A10FD02C0DB98B3
:10010A0001C0DB9AD998DA98DA9AD99AEFE01E27D1
:10011A003F5FC3CF30E0303178F555D011F4DF9826
:10012A0001C0DF9A56D011F4C09801C0C09AE32FDB
:10013A00E695E17011F4C19801C0C19A30FD02C080
:10014A00D89801C0D89AD998E0E0AB9BE1E0EA934D
:10015A00E0E0AA9BE1E0EA93E0E0A99BE1E0EA9310
:10016A00A0E0A89BA1E020D0ED3009F4939AD99A97
:10017A00EFE01E273F5FCFCFEFE01E270F5F89CF4B
:10018A00AB98AA98A998A89829D0E03009F0939A30
:10019A00AB9AAA9AA99AA89A21D0EF3009F0939A11
:1001AA00939B929A75CFFFCF29D01A2F0C813D814C
:1001BA002E81E22FEE0FE32BEE0FE02BEE0FE12B59
:1001CA0022D027960895E32FE695E695E695E17005
:1001DA000895E32FE695E695E1700895E0E0AB997E
:1001EA00E1E0EA93E0E0AA99E1E0EA93E0E0A99984
:1001FA00E1E0EA93A0E0A899A1E0D6CF3A932A9346
:10020A001A930A9308953B812A81198108810895D6
:00000001FF
