:020000000C945E
:100002002F000C9400000C9400000C9400000C943F
:1000120000000C9400000C9400000C9400000C945E
:1000220000000C9400000C9400000C9400000C944E
:1000320000000C9400000C9400000C9400000C943E
:1000420000000C9400000C9400000C9400000C942E
:10005200000000000100070054000000F894EE27A1
:10006200ECBBF1E0FBBFEBBFE5BF8DE0A2E0BB273D
:10007200ED938A95E9F780E098E0A0E6ED93019789
:10008200E9F7E6E5F0E085919591009761F0A59199
:10009200B59105901590BF01F00105900D92019761
:1000A200E1F7FB01F0CFEFE5EDBFE8E0EEBFC0E620
:1000B200D2E00C945C00E0E0E4BBEFEFEABBE1BB12
:1000C200E0E0EBBBDD98DC98DF98DD9ADC9ADE9A03
:1000D2005524E8E0E51560F077D011F0E1E07E2EDE
:1000E2009C9902C0E1E07E2EDC98DC9A5394F1CF19
:1000F2006BD011F0E1E07E2EE9E05E2EE1E05E16CB
:1001020060F062D011F0E1E07E2E9D9902C0E1E044
:100112007E2EDD98DD9A5A94F1CF56D011F0E1E0AF
:100122007E2EE5E04E2E5524E1E0E515B8F1E42DF2
:10013200E695E695E695E17011F4DB9801C0DB9A4D
:10014200E42DE695E695E17011F4DA9801C0DA9AA9
:10015200E42DE695E17011F4D99801C0D99A40FCDA
:1001620002C0D89801C0D89ADE98DE9AE0E09B9946
:10017200E1E0EA93E0E09A99E1E0EA93E0E099991C
:10018200E1E0EA93A0E09899A1E00FD04E1611F0B9
:10019200E1E07E2EEFE04E265394C6CF772011F495
:1001A200969A01C0979A8CCFFFCF20D01A2F0C813C
:1001B2003D812E81E22FEE0FE32BEE0FE02BEE0FAF
:1001C200E12B19D027960895E0E09B99E1E0EA93AC
:1001D200E0E09A99E1E0EA93E0E09999E1E0EA93BC
:1001E200A0E09899A1E0E1DF5E1608953A932A9380
:1001F2001A930A9308953B812A81198108810895EF
:00000001FF
